{
  "address": "0xe7f1725E7734CE288F8367e1Bb143E90bb3F0512",
  "abi": [
    {
      "inputs": [
        {
          "internalType": "address",
          "name": "priceFeedAddress",
          "type": "address"
        }
      ],
      "stateMutability": "nonpayable",
      "type": "constructor"
    },
    {
      "inputs": [],
      "name": "FundMe__Unauthorized",
      "type": "error"
    },
    {
      "inputs": [],
      "name": "MINIMUM_USD",
      "outputs": [
        {
          "internalType": "uint256",
          "name": "",
          "type": "uint256"
        }
      ],
      "stateMutability": "view",
      "type": "function"
    },
    {
      "inputs": [],
      "name": "cheaperWithdraw",
      "outputs": [],
      "stateMutability": "payable",
      "type": "function"
    },
    {
      "inputs": [],
      "name": "fund",
      "outputs": [],
      "stateMutability": "payable",
      "type": "function"
    },
    {
      "inputs": [
        {
          "internalType": "address",
          "name": "funder",
          "type": "address"
        }
      ],
      "name": "getAmountFunded",
      "outputs": [
        {
          "internalType": "uint256",
          "name": "",
          "type": "uint256"
        }
      ],
      "stateMutability": "view",
      "type": "function"
    },
    {
      "inputs": [
        {
          "internalType": "uint256",
          "name": "index",
          "type": "uint256"
        }
      ],
      "name": "getFunders",
      "outputs": [
        {
          "internalType": "address",
          "name": "",
          "type": "address"
        }
      ],
      "stateMutability": "view",
      "type": "function"
    },
    {
      "inputs": [],
      "name": "getOwner",
      "outputs": [
        {
          "internalType": "address",
          "name": "",
          "type": "address"
        }
      ],
      "stateMutability": "view",
      "type": "function"
    },
    {
      "inputs": [],
      "name": "getPriceFeed",
      "outputs": [
        {
          "internalType": "contract AggregatorV3Interface",
          "name": "",
          "type": "address"
        }
      ],
      "stateMutability": "view",
      "type": "function"
    }
  ],
  "transactionHash": "0x239317deb73a3d874792962e210400a379a41cdeeed303da8dcd9e932a6225ce",
  "args": [
    "0x5FbDB2315678afecb367f032d93F642f64180aa3"
  ],
  "numDeployments": 1,
  "solcInputHash": "a1104cf3f887c527f11f35cc2a8332f0",
  "bytecode": "0x60a060405234801561001057600080fd5b50604051610e6e380380610e6e83398181016040528101906100329190610110565b3373ffffffffffffffffffffffffffffffffffffffff1660808173ffffffffffffffffffffffffffffffffffffffff168152505080600260006101000a81548173ffffffffffffffffffffffffffffffffffffffff021916908373ffffffffffffffffffffffffffffffffffffffff1602179055505061013d565b600080fd5b600073ffffffffffffffffffffffffffffffffffffffff82169050919050565b60006100dd826100b2565b9050919050565b6100ed816100d2565b81146100f857600080fd5b50565b60008151905061010a816100e4565b92915050565b600060208284031215610126576101256100ad565b5b6000610134848285016100fb565b91505092915050565b608051610d0f61015f600039600081816101dc01526103a60152610d0f6000f3fe6080604052600436106100705760003560e01c80639e87a5cd1161004e5780639e87a5cd14610108578063a48b455514610133578063b60d428814610170578063be2693f01461017a57610070565b80633a7b6c74146100755780636b69a592146100b2578063893d20e8146100dd575b600080fd5b34801561008157600080fd5b5061009c600480360381019061009791906107e2565b610184565b6040516100a99190610850565b60405180910390f35b3480156100be57600080fd5b506100c76101cb565b6040516100d4919061087a565b60405180910390f35b3480156100e957600080fd5b506100f26101d8565b6040516100ff9190610850565b60405180910390f35b34801561011457600080fd5b5061011d610200565b60405161012a91906108f4565b60405180910390f35b34801561013f57600080fd5b5061015a6004803603810190610155919061093b565b61022a565b604051610167919061087a565b60405180910390f35b610178610273565b005b6101826103a4565b005b600080828154811061019957610198610968565b5b9060005260206000200160009054906101000a900473ffffffffffffffffffffffffffffffffffffffff169050919050565b6802b5e3af16b188000081565b60007f0000000000000000000000000000000000000000000000000000000000000000905090565b6000600260009054906101000a900473ffffffffffffffffffffffffffffffffffffffff16905090565b6000600160008373ffffffffffffffffffffffffffffffffffffffff1673ffffffffffffffffffffffffffffffffffffffff168152602001908152602001600020549050919050565b6802b5e3af16b18800006102b2600260009054906101000a900473ffffffffffffffffffffffffffffffffffffffff163461063990919063ffffffff16565b116102e9576040517ff8362c2700000000000000000000000000000000000000000000000000000000815260040160405180910390fd5b34600160003373ffffffffffffffffffffffffffffffffffffffff1673ffffffffffffffffffffffffffffffffffffffff168152602001908152602001600020600082825461033891906109c6565b925050819055506000339080600181540180825580915050600190039060005260206000200160009091909190916101000a81548173ffffffffffffffffffffffffffffffffffffffff021916908373ffffffffffffffffffffffffffffffffffffffff160217905550565b7f000000000000000000000000000000000000000000000000000000000000000073ffffffffffffffffffffffffffffffffffffffff163373ffffffffffffffffffffffffffffffffffffffff1614610429576040517ff8362c2700000000000000000000000000000000000000000000000000000000815260040160405180910390fd5b6000808054806020026020016040519081016040528092919081815260200182805480156104ac57602002820191906000526020600020905b8160009054906101000a900473ffffffffffffffffffffffffffffffffffffffff1673ffffffffffffffffffffffffffffffffffffffff1681526020019060010190808311610462575b5050505050905060005b8151811015610531576000600160008484815181106104d8576104d7610968565b5b602002602001015173ffffffffffffffffffffffffffffffffffffffff1673ffffffffffffffffffffffffffffffffffffffff168152602001908152602001600020819055508080610529906109fa565b9150506104b6565b50600067ffffffffffffffff81111561054d5761054c610a42565b5b60405190808252806020026020018201604052801561057b5781602001602082028036833780820191505090505b5060009080519060200190610591929190610700565b5060003373ffffffffffffffffffffffffffffffffffffffff16476040516105b890610aa2565b60006040518083038185875af1925050503d80600081146105f5576040519150601f19603f3d011682016040523d82523d6000602084013e6105fa565b606091505b5050905080610635576040517ff8362c2700000000000000000000000000000000000000000000000000000000815260040160405180910390fd5b5050565b6000806106458361066f565b9050670de0b6b3a7640000848261065c9190610ab7565b6106669190610b28565b91505092915050565b6000808273ffffffffffffffffffffffffffffffffffffffff1663feaf968c6040518163ffffffff1660e01b815260040160a060405180830381865afa1580156106bd573d6000803e3d6000fd5b505050506040513d601f19601f820116820180604052508101906106e19190610be6565b5050509150506402540be400816106f89190610c61565b915050919050565b828054828255906000526020600020908101928215610779579160200282015b828111156107785782518260006101000a81548173ffffffffffffffffffffffffffffffffffffffff021916908373ffffffffffffffffffffffffffffffffffffffff16021790555091602001919060010190610720565b5b509050610786919061078a565b5090565b5b808211156107a357600081600090555060010161078b565b5090565b600080fd5b6000819050919050565b6107bf816107ac565b81146107ca57600080fd5b50565b6000813590506107dc816107b6565b92915050565b6000602082840312156107f8576107f76107a7565b5b6000610806848285016107cd565b91505092915050565b600073ffffffffffffffffffffffffffffffffffffffff82169050919050565b600061083a8261080f565b9050919050565b61084a8161082f565b82525050565b60006020820190506108656000830184610841565b92915050565b610874816107ac565b82525050565b600060208201905061088f600083018461086b565b92915050565b6000819050919050565b60006108ba6108b56108b08461080f565b610895565b61080f565b9050919050565b60006108cc8261089f565b9050919050565b60006108de826108c1565b9050919050565b6108ee816108d3565b82525050565b600060208201905061090960008301846108e5565b92915050565b6109188161082f565b811461092357600080fd5b50565b6000813590506109358161090f565b92915050565b600060208284031215610951576109506107a7565b5b600061095f84828501610926565b91505092915050565b7f4e487b7100000000000000000000000000000000000000000000000000000000600052603260045260246000fd5b7f4e487b7100000000000000000000000000000000000000000000000000000000600052601160045260246000fd5b60006109d1826107ac565b91506109dc836107ac565b92508282019050808211156109f4576109f3610997565b5b92915050565b6000610a05826107ac565b91507fffffffffffffffffffffffffffffffffffffffffffffffffffffffffffffffff8203610a3757610a36610997565b5b600182019050919050565b7f4e487b7100000000000000000000000000000000000000000000000000000000600052604160045260246000fd5b600081905092915050565b50565b6000610a8c600083610a71565b9150610a9782610a7c565b600082019050919050565b6000610aad82610a7f565b9150819050919050565b6000610ac2826107ac565b9150610acd836107ac565b9250828202610adb816107ac565b91508282048414831517610af257610af1610997565b5b5092915050565b7f4e487b7100000000000000000000000000000000000000000000000000000000600052601260045260246000fd5b6000610b33826107ac565b9150610b3e836107ac565b925082610b4e57610b4d610af9565b5b828204905092915050565b600069ffffffffffffffffffff82169050919050565b610b7881610b59565b8114610b8357600080fd5b50565b600081519050610b9581610b6f565b92915050565b6000819050919050565b610bae81610b9b565b8114610bb957600080fd5b50565b600081519050610bcb81610ba5565b92915050565b600081519050610be0816107b6565b92915050565b600080600080600060a08688031215610c0257610c016107a7565b5b6000610c1088828901610b86565b9550506020610c2188828901610bbc565b9450506040610c3288828901610bd1565b9350506060610c4388828901610bd1565b9250506080610c5488828901610b86565b9150509295509295909350565b6000610c6c82610b9b565b9150610c7783610b9b565b9250828202610c8581610b9b565b91507f80000000000000000000000000000000000000000000000000000000000000008414600084121615610cbd57610cbc610997565b5b8282058414831517610cd257610cd1610997565b5b509291505056fea2646970667358221220ea29e720bb8c7fc27ec5f735ffdd307c1a1d218c338b7c01d2359fa1518b6cdf64736f6c63430008120033",
  "devdoc": {
    "author": "Fahm21",
    "details": "This contract gives us the current eth price, stores funder and more",
    "kind": "dev",
    "methods": {},
    "title": "This is a contract for crowd funding",
    "version": 1
  },
  "userdoc": {
    "kind": "user",
    "methods": {},
    "notice": "This is just a sample and should not be used for live development",
    "version": 1
  },
  "storageLayout": {
    "storage": [
      {
        "astId": 57,
        "contract": "contracts/FundMe.sol:FundMe",
        "label": "s_funders",
        "offset": 0,
        "slot": "0",
        "type": "t_array(t_address)dyn_storage"
      },
      {
        "astId": 61,
        "contract": "contracts/FundMe.sol:FundMe",
        "label": "s_fundersToAmountFunded",
        "offset": 0,
        "slot": "1",
        "type": "t_mapping(t_address,t_uint256)"
      },
      {
        "astId": 66,
        "contract": "contracts/FundMe.sol:FundMe",
        "label": "s_priceFeed",
        "offset": 0,
        "slot": "2",
        "type": "t_contract(AggregatorV3Interface)45"
      }
    ],
    "types": {
      "t_address": {
        "encoding": "inplace",
        "label": "address",
        "numberOfBytes": "20"
      },
      "t_array(t_address)dyn_storage": {
        "base": "t_address",
        "encoding": "dynamic_array",
        "label": "address[]",
        "numberOfBytes": "32"
      },
      "t_contract(AggregatorV3Interface)45": {
        "encoding": "inplace",
        "label": "contract AggregatorV3Interface",
        "numberOfBytes": "20"
      },
      "t_mapping(t_address,t_uint256)": {
        "encoding": "mapping",
        "key": "t_address",
        "label": "mapping(address => uint256)",
        "numberOfBytes": "32",
        "value": "t_uint256"
      },
      "t_uint256": {
        "encoding": "inplace",
        "label": "uint256",
        "numberOfBytes": "32"
      }
    }
  }
}